{
  "abi": [
    {
      "type": "constructor",
      "inputs": [
        {
          "name": "defaultAdmin",
          "type": "address",
          "internalType": "address"
        },
        {
          "name": "minter",
          "type": "address",
          "internalType": "address"
        }
      ],
      "stateMutability": "nonpayable"
    },
    {
      "type": "function",
      "name": "DEFAULT_ADMIN_ROLE",
      "inputs": [],
      "outputs": [
        {
          "name": "",
          "type": "bytes32",
          "internalType": "bytes32"
        }
      ],
      "stateMutability": "view"
    },
    {
      "type": "function",
      "name": "MINTER_ROLE",
      "inputs": [],
      "outputs": [
        {
          "name": "",
          "type": "bytes32",
          "internalType": "bytes32"
        }
      ],
      "stateMutability": "view"
    },
    {
      "type": "function",
      "name": "URI_SETTER_ROLE",
      "inputs": [],
      "outputs": [
        {
          "name": "",
          "type": "bytes32",
          "internalType": "bytes32"
        }
      ],
      "stateMutability": "view"
    },
    {
      "type": "function",
      "name": "addGameIdAndMinter",
      "inputs": [
        {
          "name": "gameID",
          "type": "uint256",
          "internalType": "uint256"
        },
        {
          "name": "minter",
          "type": "address",
          "internalType": "address"
        }
      ],
      "outputs": [],
      "stateMutability": "nonpayable"
    },
    {
      "type": "function",
      "name": "balanceOf",
      "inputs": [
        {
          "name": "account",
          "type": "address",
          "internalType": "address"
        },
        {
          "name": "id",
          "type": "uint256",
          "internalType": "uint256"
        }
      ],
      "outputs": [
        {
          "name": "",
          "type": "uint256",
          "internalType": "uint256"
        }
      ],
      "stateMutability": "view"
    },
    {
      "type": "function",
      "name": "balanceOfBatch",
      "inputs": [
        {
          "name": "accounts",
          "type": "address[]",
          "internalType": "address[]"
        },
        {
          "name": "ids",
          "type": "uint256[]",
          "internalType": "uint256[]"
        }
      ],
      "outputs": [
        {
          "name": "",
          "type": "uint256[]",
          "internalType": "uint256[]"
        }
      ],
      "stateMutability": "view"
    },
    {
      "type": "function",
      "name": "burn",
      "inputs": [
        {
          "name": "account",
          "type": "address",
          "internalType": "address"
        },
        {
          "name": "id",
          "type": "uint256",
          "internalType": "uint256"
        },
        {
          "name": "value",
          "type": "uint256",
          "internalType": "uint256"
        }
      ],
      "outputs": [],
      "stateMutability": "nonpayable"
    },
    {
      "type": "function",
      "name": "burnBatch",
      "inputs": [
        {
          "name": "account",
          "type": "address",
          "internalType": "address"
        },
        {
          "name": "ids",
          "type": "uint256[]",
          "internalType": "uint256[]"
        },
        {
          "name": "values",
          "type": "uint256[]",
          "internalType": "uint256[]"
        }
      ],
      "outputs": [],
      "stateMutability": "nonpayable"
    },
    {
      "type": "function",
      "name": "getRoleAdmin",
      "inputs": [
        {
          "name": "role",
          "type": "bytes32",
          "internalType": "bytes32"
        }
      ],
      "outputs": [
        {
          "name": "",
          "type": "bytes32",
          "internalType": "bytes32"
        }
      ],
      "stateMutability": "view"
    },
    {
      "type": "function",
      "name": "grantRole",
      "inputs": [
        {
          "name": "role",
          "type": "bytes32",
          "internalType": "bytes32"
        },
        {
          "name": "account",
          "type": "address",
          "internalType": "address"
        }
      ],
      "outputs": [],
      "stateMutability": "nonpayable"
    },
    {
      "type": "function",
      "name": "hasRole",
      "inputs": [
        {
          "name": "role",
          "type": "bytes32",
          "internalType": "bytes32"
        },
        {
          "name": "account",
          "type": "address",
          "internalType": "address"
        }
      ],
      "outputs": [
        {
          "name": "",
          "type": "bool",
          "internalType": "bool"
        }
      ],
      "stateMutability": "view"
    },
    {
      "type": "function",
      "name": "isApprovedForAll",
      "inputs": [
        {
          "name": "",
          "type": "address",
          "internalType": "address"
        },
        {
          "name": "",
          "type": "address",
          "internalType": "address"
        }
      ],
      "outputs": [
        {
          "name": "",
          "type": "bool",
          "internalType": "bool"
        }
      ],
      "stateMutability": "view"
    },
    {
      "type": "function",
      "name": "mint",
      "inputs": [
        {
          "name": "account",
          "type": "address",
          "internalType": "address"
        },
        {
          "name": "id",
          "type": "uint256",
          "internalType": "uint256"
        },
        {
          "name": "gameID",
          "type": "uint256",
          "internalType": "uint256"
        },
        {
          "name": "amount",
          "type": "uint256",
          "internalType": "uint256"
        },
        {
          "name": "data",
          "type": "bytes",
          "internalType": "bytes"
        }
      ],
      "outputs": [],
      "stateMutability": "nonpayable"
    },
    {
      "type": "function",
      "name": "mintBatch",
      "inputs": [
        {
          "name": "to",
          "type": "address",
          "internalType": "address"
        },
        {
          "name": "ids",
          "type": "uint256[]",
          "internalType": "uint256[]"
        },
        {
          "name": "gameIDs",
          "type": "uint256[]",
          "internalType": "uint256[]"
        },
        {
          "name": "amounts",
          "type": "uint256[]",
          "internalType": "uint256[]"
        },
        {
          "name": "data",
          "type": "bytes",
          "internalType": "bytes"
        }
      ],
      "outputs": [],
      "stateMutability": "nonpayable"
    },
    {
      "type": "function",
      "name": "removeGameIdAndMinter",
      "inputs": [
        {
          "name": "gameID",
          "type": "uint256",
          "internalType": "uint256"
        }
      ],
      "outputs": [],
      "stateMutability": "nonpayable"
    },
    {
      "type": "function",
      "name": "renounceRole",
      "inputs": [
        {
          "name": "role",
          "type": "bytes32",
          "internalType": "bytes32"
        },
        {
          "name": "callerConfirmation",
          "type": "address",
          "internalType": "address"
        }
      ],
      "outputs": [],
      "stateMutability": "nonpayable"
    },
    {
      "type": "function",
      "name": "revokeRole",
      "inputs": [
        {
          "name": "role",
          "type": "bytes32",
          "internalType": "bytes32"
        },
        {
          "name": "account",
          "type": "address",
          "internalType": "address"
        }
      ],
      "outputs": [],
      "stateMutability": "nonpayable"
    },
    {
      "type": "function",
      "name": "s_gameToMinter",
      "inputs": [
        {
          "name": "",
          "type": "uint256",
          "internalType": "uint256"
        }
      ],
      "outputs": [
        {
          "name": "",
          "type": "address",
          "internalType": "address"
        }
      ],
      "stateMutability": "view"
    },
    {
      "type": "function",
      "name": "safeBatchTransferFrom",
      "inputs": [
        {
          "name": "",
          "type": "address",
          "internalType": "address"
        },
        {
          "name": "",
          "type": "address",
          "internalType": "address"
        },
        {
          "name": "",
          "type": "uint256[]",
          "internalType": "uint256[]"
        },
        {
          "name": "",
          "type": "uint256[]",
          "internalType": "uint256[]"
        },
        {
          "name": "",
          "type": "bytes",
          "internalType": "bytes"
        }
      ],
      "outputs": [],
      "stateMutability": "nonpayable"
    },
    {
      "type": "function",
      "name": "safeTransferFrom",
      "inputs": [
        {
          "name": "",
          "type": "address",
          "internalType": "address"
        },
        {
          "name": "",
          "type": "address",
          "internalType": "address"
        },
        {
          "name": "",
          "type": "uint256",
          "internalType": "uint256"
        },
        {
          "name": "",
          "type": "uint256",
          "internalType": "uint256"
        },
        {
          "name": "",
          "type": "bytes",
          "internalType": "bytes"
        }
      ],
      "outputs": [],
      "stateMutability": "nonpayable"
    },
    {
      "type": "function",
      "name": "setApprovalForAll",
      "inputs": [
        {
          "name": "",
          "type": "address",
          "internalType": "address"
        },
        {
          "name": "",
          "type": "bool",
          "internalType": "bool"
        }
      ],
      "outputs": [],
      "stateMutability": "nonpayable"
    },
    {
      "type": "function",
      "name": "setURI",
      "inputs": [
        {
          "name": "newuri",
          "type": "string",
          "internalType": "string"
        }
      ],
      "outputs": [],
      "stateMutability": "nonpayable"
    },
    {
      "type": "function",
      "name": "supportsInterface",
      "inputs": [
        {
          "name": "interfaceId",
          "type": "bytes4",
          "internalType": "bytes4"
        }
      ],
      "outputs": [
        {
          "name": "",
          "type": "bool",
          "internalType": "bool"
        }
      ],
      "stateMutability": "view"
    },
    {
      "type": "function",
      "name": "uri",
      "inputs": [
        {
          "name": "",
          "type": "uint256",
          "internalType": "uint256"
        }
      ],
      "outputs": [
        {
          "name": "",
          "type": "string",
          "internalType": "string"
        }
      ],
      "stateMutability": "view"
    },
    {
      "type": "event",
      "name": "ApprovalForAll",
      "inputs": [
        {
          "name": "account",
          "type": "address",
          "indexed": true,
          "internalType": "address"
        },
        {
          "name": "operator",
          "type": "address",
          "indexed": true,
          "internalType": "address"
        },
        {
          "name": "approved",
          "type": "bool",
          "indexed": false,
          "internalType": "bool"
        }
      ],
      "anonymous": false
    },
    {
      "type": "event",
      "name": "MinterRemoved",
      "inputs": [
        {
          "name": "gameID",
          "type": "uint256",
          "indexed": true,
          "internalType": "uint256"
        },
        {
          "name": "minter",
          "type": "address",
          "indexed": true,
          "internalType": "address"
        }
      ],
      "anonymous": false
    },
    {
      "type": "event",
      "name": "MinterSet",
      "inputs": [
        {
          "name": "gameID",
          "type": "uint256",
          "indexed": true,
          "internalType": "uint256"
        },
        {
          "name": "minter",
          "type": "address",
          "indexed": true,
          "internalType": "address"
        }
      ],
      "anonymous": false
    },
    {
      "type": "event",
      "name": "RoleAdminChanged",
      "inputs": [
        {
          "name": "role",
          "type": "bytes32",
          "indexed": true,
          "internalType": "bytes32"
        },
        {
          "name": "previousAdminRole",
          "type": "bytes32",
          "indexed": true,
          "internalType": "bytes32"
        },
        {
          "name": "newAdminRole",
          "type": "bytes32",
          "indexed": true,
          "internalType": "bytes32"
        }
      ],
      "anonymous": false
    },
    {
      "type": "event",
      "name": "RoleGranted",
      "inputs": [
        {
          "name": "role",
          "type": "bytes32",
          "indexed": true,
          "internalType": "bytes32"
        },
        {
          "name": "account",
          "type": "address",
          "indexed": true,
          "internalType": "address"
        },
        {
          "name": "sender",
          "type": "address",
          "indexed": true,
          "internalType": "address"
        }
      ],
      "anonymous": false
    },
    {
      "type": "event",
      "name": "RoleRevoked",
      "inputs": [
        {
          "name": "role",
          "type": "bytes32",
          "indexed": true,
          "internalType": "bytes32"
        },
        {
          "name": "account",
          "type": "address",
          "indexed": true,
          "internalType": "address"
        },
        {
          "name": "sender",
          "type": "address",
          "indexed": true,
          "internalType": "address"
        }
      ],
      "anonymous": false
    },
    {
      "type": "event",
      "name": "TransferBatch",
      "inputs": [
        {
          "name": "operator",
          "type": "address",
          "indexed": true,
          "internalType": "address"
        },
        {
          "name": "from",
          "type": "address",
          "indexed": true,
          "internalType": "address"
        },
        {
          "name": "to",
          "type": "address",
          "indexed": true,
          "internalType": "address"
        },
        {
          "name": "ids",
          "type": "uint256[]",
          "indexed": false,
          "internalType": "uint256[]"
        },
        {
          "name": "values",
          "type": "uint256[]",
          "indexed": false,
          "internalType": "uint256[]"
        }
      ],
      "anonymous": false
    },
    {
      "type": "event",
      "name": "TransferSingle",
      "inputs": [
        {
          "name": "operator",
          "type": "address",
          "indexed": true,
          "internalType": "address"
        },
        {
          "name": "from",
          "type": "address",
          "indexed": true,
          "internalType": "address"
        },
        {
          "name": "to",
          "type": "address",
          "indexed": true,
          "internalType": "address"
        },
        {
          "name": "id",
          "type": "uint256",
          "indexed": false,
          "internalType": "uint256"
        },
        {
          "name": "value",
          "type": "uint256",
          "indexed": false,
          "internalType": "uint256"
        }
      ],
      "anonymous": false
    },
    {
      "type": "event",
      "name": "URI",
      "inputs": [
        {
          "name": "value",
          "type": "string",
          "indexed": false,
          "internalType": "string"
        },
        {
          "name": "id",
          "type": "uint256",
          "indexed": true,
          "internalType": "uint256"
        }
      ],
      "anonymous": false
    },
    {
      "type": "error",
      "name": "AccessControlBadConfirmation",
      "inputs": []
    },
    {
      "type": "error",
      "name": "AccessControlUnauthorizedAccount",
      "inputs": [
        {
          "name": "account",
          "type": "address",
          "internalType": "address"
        },
        {
          "name": "neededRole",
          "type": "bytes32",
          "internalType": "bytes32"
        }
      ]
    },
    {
      "type": "error",
      "name": "ERC1155InsufficientBalance",
      "inputs": [
        {
          "name": "sender",
          "type": "address",
          "internalType": "address"
        },
        {
          "name": "balance",
          "type": "uint256",
          "internalType": "uint256"
        },
        {
          "name": "needed",
          "type": "uint256",
          "internalType": "uint256"
        },
        {
          "name": "tokenId",
          "type": "uint256",
          "internalType": "uint256"
        }
      ]
    },
    {
      "type": "error",
      "name": "ERC1155InvalidApprover",
      "inputs": [
        {
          "name": "approver",
          "type": "address",
          "internalType": "address"
        }
      ]
    },
    {
      "type": "error",
      "name": "ERC1155InvalidArrayLength",
      "inputs": [
        {
          "name": "idsLength",
          "type": "uint256",
          "internalType": "uint256"
        },
        {
          "name": "valuesLength",
          "type": "uint256",
          "internalType": "uint256"
        }
      ]
    },
    {
      "type": "error",
      "name": "ERC1155InvalidOperator",
      "inputs": [
        {
          "name": "operator",
          "type": "address",
          "internalType": "address"
        }
      ]
    },
    {
      "type": "error",
      "name": "ERC1155InvalidReceiver",
      "inputs": [
        {
          "name": "receiver",
          "type": "address",
          "internalType": "address"
        }
      ]
    },
    {
      "type": "error",
      "name": "ERC1155InvalidSender",
      "inputs": [
        {
          "name": "sender",
          "type": "address",
          "internalType": "address"
        }
      ]
    },
    {
      "type": "error",
      "name": "ERC1155MissingApprovalForAll",
      "inputs": [
        {
          "name": "operator",
          "type": "address",
          "internalType": "address"
        },
        {
          "name": "owner",
          "type": "address",
          "internalType": "address"
        }
      ]
    },
    {
      "type": "error",
      "name": "GameIdMustBe4Cyphers",
      "inputs": []
    },
    {
      "type": "error",
      "name": "GameIdsDontMatchIds",
      "inputs": []
    },
    {
      "type": "error",
      "name": "IdDoesNotMatchGameId",
      "inputs": []
    },
    {
      "type": "error",
      "name": "MinterNotTiedToGameId",
      "inputs": []
    },
    {
      "type": "error",
      "name": "SoulboundTokensCannotBeApproved",
      "inputs": []
    },
    {
      "type": "error",
      "name": "SoulboundTokensCannotBeTransferred",
      "inputs": []
    },
    {
      "type": "error",
      "name": "TokenIdMustBeExactly11Cyphers",
      "inputs": []
    }
  ],
  "bytecode": {
    "object": "0x608060405234801561000f575f80fd5b50604051611d17380380611d1783398101604081905261002e9161015b565b60408051602081019091525f815261004581610083565b506100505f83610093565b5061007b7f9f2df0fed2c77648de5860a4cc508cd0818c85b8b8a1ab4ceeef8d981c8956a682610093565b5050506102e3565b600261008f8282610224565b5050565b5f8281526003602090815260408083206001600160a01b038516845290915281205460ff16610137575f8381526003602090815260408083206001600160a01b03861684529091529020805460ff191660011790556100ef3390565b6001600160a01b0316826001600160a01b0316847f2f8788117e7eff1d82e926ec794901d17c78024a50270940304540a733656f0d60405160405180910390a450600161013a565b505f5b92915050565b80516001600160a01b0381168114610156575f80fd5b919050565b5f806040838503121561016c575f80fd5b61017583610140565b915061018360208401610140565b90509250929050565b634e487b7160e01b5f52604160045260245ffd5b600181811c908216806101b457607f821691505b6020821081036101d257634e487b7160e01b5f52602260045260245ffd5b50919050565b601f82111561021f57805f5260205f20601f840160051c810160208510156101fd5750805b601f840160051c820191505b8181101561021c575f8155600101610209565b50505b505050565b81516001600160401b0381111561023d5761023d61018c565b6102518161024b84546101a0565b846101d8565b602080601f831160018114610284575f841561026d5750858301515b5f19600386901b1c1916600185901b1785556102db565b5f85815260208120601f198616915b828110156102b257888601518255948401946001909101908401610293565b50858210156102cf57878501515f19600388901b60f8161c191681555b505060018460011b0185555b505050505050565b611a27806102f05f395ff3fe608060405234801561000f575f80fd5b5060043610610152575f3560e01c806391d14854116100bf578063d4a714b011610079578063d4a714b01461032f578063d539139314610342578063d547741f14610356578063e985e9c514610369578063f242432a1461037e578063f5298aca1461038c575f80fd5b806391d148541461029c578063a217fddf146102af578063a22cb465146102b6578063ad283bd1146102c9578063b05b1e1c14610309578063b49c99b81461031c575f80fd5b80632f2ff15d116101105780632f2ff15d1461020957806336568abe1461021c5780634e1273f41461022f5780635cba909f1461024f5780636b20c454146102625780637f34571014610275575f80fd5b8062fdd58e1461015657806301ffc9a71461017c57806302fe53051461019f5780630e89341c146101b4578063248a9ca3146101d45780632eb2c2d6146101f6575b5f80fd5b61016961016436600461113a565b61039f565b6040519081526020015b60405180910390f35b61018f61018a366004611177565b6103c6565b6040519015158152602001610173565b6101b26101ad366004611233565b6103d0565b005b6101c76101c2366004611280565b610407565b60405161017391906112c5565b6101696101e2366004611280565b5f9081526003602052604090206001015490565b6101b2610204366004611384565b610499565b6101b2610217366004611427565b6104b2565b6101b261022a366004611427565b6104dc565b61024261023d366004611451565b610514565b6040516101739190611545565b6101b261025d366004611427565b6105e4565b6101b2610270366004611557565b610696565b6101697f7804d923f43a17d325d77e781528e0793b2edd9890ab45fc64efd7b4b427744c81565b61018f6102aa366004611427565b6106f5565b6101695f81565b6101b26102c43660046115c6565b61071f565b6102f16102d7366004611280565b60046020525f90815260409020546001600160a01b031681565b6040516001600160a01b039091168152602001610173565b6101b26103173660046115ff565b610738565b6101b261032a366004611659565b6107d5565b6101b261033d366004611280565b610802565b6101695f805160206119d283398151915281565b6101b2610364366004611427565b610884565b61018f6103773660046116b2565b5f92915050565b6101b26102043660046116da565b6101b261039a36600461172e565b6108a8565b5f818152602081815260408083206001600160a01b03861684529091529020545b92915050565b5f6103c0826108de565b7f7804d923f43a17d325d77e781528e0793b2edd9890ab45fc64efd7b4b427744c6103fa81610902565b6104038261090f565b5050565b6060600280546104169061175e565b80601f01602080910402602001604051908101604052809291908181526020018280546104429061175e565b801561048d5780601f106104645761010080835404028352916020019161048d565b820191905f5260205f20905b81548152906001019060200180831161047057829003601f168201915b50505050509050919050565b604051631f7c0c9760e11b815260040160405180910390fd5b5f828152600360205260409020600101546104cc81610902565b6104d6838361091b565b50505050565b6001600160a01b03811633146105055760405163334bd91960e11b815260040160405180910390fd5b61050f82826109ac565b505050565b6060815183511461054a5781518351604051635b05999160e01b8152600481019290925260248201526044015b60405180910390fd5b5f835167ffffffffffffffff81111561056557610565611199565b60405190808252806020026020018201604052801561058e578160200160208202803683370190505b5090505f5b84518110156105dc576020808202860101516105b79060208084028701015161039f565b8282815181106105c9576105c9611796565b6020908102919091010152600101610593565b509392505050565b5f6105ee81610902565b6103e883108061060057506127108310155b1561061e5760405163261361a760e01b815260040160405180910390fd5b5f83815260046020526040902080546001600160a01b0319166001600160a01b03841617905561065b5f805160206119d28339815191528361091b565b506040516001600160a01b0383169084907f8b1b79a7df5491e101d4b11703d60e3a3c9e54034e38f31eb8b48f4ce8d1be17905f90a3505050565b6001600160a01b03831633148015906106b657506106b48333610377565b155b156106ea57335b60405163711bec9160e11b81526001600160a01b0391821660048201529084166024820152604401610541565b61050f838383610a17565b5f9182526003602090815260408084206001600160a01b0393909316845291905290205460ff1690565b604051636e53c1bb60e01b815260040160405180910390fd5b5f805160206119d283398151915261074f81610902565b835185511461077157604051631fbf7bfb60e21b815260040160405180910390fd5b5f5b85518110156107c0576107b885828151811061079157610791611796565b60200260200101518783815181106107ab576107ab611796565b6020026020010151610a5a565b600101610773565b506107cd86868585610b26565b505050505050565b5f805160206119d28339815191526107ec81610902565b6107f68486610a5a565b6107cd86868585610b5c565b5f61080c81610902565b5f82815260046020526040902080546001600160a01b031981169091556001600160a01b03166108495f805160206119d2833981519152826109ac565b506040516001600160a01b0382169084907fd124e34cb336a5d97cf79c6158548fef3f4f3539833cd12e6c440f62c288fc47905f90a3505050565b5f8281526003602052604090206001015461089e81610902565b6104d683836109ac565b6001600160a01b03831633148015906108c857506108c68333610377565b155b156108d357336106bd565b61050f838383610bb7565b5f6001600160e01b03198216637965db0b60e01b14806103c057506103c082610c24565b61090c8133610c73565b50565b600261040382826117ee565b5f61092683836106f5565b6109a5575f8381526003602090815260408083206001600160a01b03861684529091529020805460ff1916600117905561095d3390565b6001600160a01b0316826001600160a01b0316847f2f8788117e7eff1d82e926ec794901d17c78024a50270940304540a733656f0d60405160405180910390a45060016103c0565b505f6103c0565b5f6109b783836106f5565b156109a5575f8381526003602090815260408083206001600160a01b0386168085529252808320805460ff1916905551339286917ff6391f5c32d9c69d2a47ea670b442974b53935d1edc7fd64eb21e047a839171b9190a45060016103c0565b6001600160a01b038316610a3f57604051626a0d4560e21b81525f6004820152602401610541565b61050f835f848460405180602001604052805f815250610cac565b6402540be400811080610a72575064174876e8008110155b15610a9057604051631c6deb2960e01b815260040160405180910390fd5b6103e8821080610aa257506127108210155b15610ac05760405163261361a760e01b815260040160405180910390fd5b5f610ace62989680836118aa565b9050828114610af05760405163167d5b7b60e21b815260040160405180910390fd5b5f838152600460205260409020546001600160a01b0316331461050f576040516322f0901160e01b815260040160405180910390fd5b6001600160a01b038416610b4f57604051632bfa23e760e11b81525f6004820152602401610541565b6104d65f85858585610cac565b6001600160a01b038416610b8557604051632bfa23e760e11b81525f6004820152602401610541565b604080516001808252602082018690528183019081526060820185905260808201909252906107cd5f87848487610cac565b6001600160a01b038316610bdf57604051626a0d4560e21b81525f6004820152602401610541565b604080516001808252602082018590528183019081526060820184905260a082019092525f60808201818152919291610c1d91879185908590610cac565b5050505050565b5f6001600160e01b03198216636cdb3d1360e11b1480610c5457506001600160e01b031982166303a24d0760e21b145b806103c057506301ffc9a760e01b6001600160e01b03198316146103c0565b610c7d82826106f5565b6104035760405163e2517d3f60e01b81526001600160a01b038216600482015260248101839052604401610541565b610cb885858585610cff565b6001600160a01b03841615610c1d5782513390600103610cf15760208481015190840151610cea838989858589610f0e565b50506107cd565b6107cd818787878787611038565b8051825114610d2e5781518151604051635b05999160e01b815260048101929092526024820152604401610541565b335f5b8351811015610e30576020818102858101820151908501909101516001600160a01b03881615610de2575f828152602081815260408083206001600160a01b038c16845290915290205481811015610dbc576040516303dee4c560e01b81526001600160a01b038a166004820152602481018290526044810183905260648101849052608401610541565b5f838152602081815260408083206001600160a01b038d16845290915290209082900390555b6001600160a01b03871615610e26575f828152602081815260408083206001600160a01b038b16845290915281208054839290610e209084906118c9565b90915550505b5050600101610d31565b508251600103610eb05760208301515f906020840151909150856001600160a01b0316876001600160a01b0316846001600160a01b03167fc3d58168c5ae7397731d063d5bbf3d657854427343f4c083240f7aacaa2d0f628585604051610ea1929190918252602082015260400190565b60405180910390a45050610c1d565b836001600160a01b0316856001600160a01b0316826001600160a01b03167f4a39dc06d4c0dbc64b70af90fd698a233a518aa5d07e595d983b8c0526c8f7fb8686604051610eff9291906118e8565b60405180910390a45050505050565b6001600160a01b0384163b156107cd5760405163f23a6e6160e01b81526001600160a01b0385169063f23a6e6190610f529089908990889088908890600401611915565b6020604051808303815f875af1925050508015610f8c575060408051601f3d908101601f19168201909252610f8991810190611959565b60015b610ff3573d808015610fb9576040519150601f19603f3d011682016040523d82523d5f602084013e610fbe565b606091505b5080515f03610feb57604051632bfa23e760e11b81526001600160a01b0386166004820152602401610541565b805181602001fd5b6001600160e01b0319811663f23a6e6160e01b1461102f57604051632bfa23e760e11b81526001600160a01b0386166004820152602401610541565b50505050505050565b6001600160a01b0384163b156107cd5760405163bc197c8160e01b81526001600160a01b0385169063bc197c819061107c9089908990889088908890600401611974565b6020604051808303815f875af19250505080156110b6575060408051601f3d908101601f191682019092526110b391810190611959565b60015b6110e3573d808015610fb9576040519150601f19603f3d011682016040523d82523d5f602084013e610fbe565b6001600160e01b0319811663bc197c8160e01b1461102f57604051632bfa23e760e11b81526001600160a01b0386166004820152602401610541565b80356001600160a01b0381168114611135575f80fd5b919050565b5f806040838503121561114b575f80fd5b6111548361111f565b946020939093013593505050565b6001600160e01b03198116811461090c575f80fd5b5f60208284031215611187575f80fd5b813561119281611162565b9392505050565b634e487b7160e01b5f52604160045260245ffd5b604051601f8201601f1916810167ffffffffffffffff811182821017156111d6576111d6611199565b604052919050565b5f67ffffffffffffffff8311156111f7576111f7611199565b61120a601f8401601f19166020016111ad565b905082815283838301111561121d575f80fd5b828260208301375f602084830101529392505050565b5f60208284031215611243575f80fd5b813567ffffffffffffffff811115611259575f80fd5b8201601f81018413611269575f80fd5b611278848235602084016111de565b949350505050565b5f60208284031215611290575f80fd5b5035919050565b5f81518084528060208401602086015e5f602082860101526020601f19601f83011685010191505092915050565b602081525f6111926020830184611297565b5f67ffffffffffffffff8211156112f0576112f0611199565b5060051b60200190565b5f82601f830112611309575f80fd5b8135602061131e611319836112d7565b6111ad565b8083825260208201915060208460051b87010193508684111561133f575f80fd5b602086015b8481101561135b5780358352918301918301611344565b509695505050505050565b5f82601f830112611375575f80fd5b611192838335602085016111de565b5f805f805f60a08688031215611398575f80fd5b6113a18661111f565b94506113af6020870161111f565b9350604086013567ffffffffffffffff808211156113cb575f80fd5b6113d789838a016112fa565b945060608801359150808211156113ec575f80fd5b6113f889838a016112fa565b9350608088013591508082111561140d575f80fd5b5061141a88828901611366565b9150509295509295909350565b5f8060408385031215611438575f80fd5b823591506114486020840161111f565b90509250929050565b5f8060408385031215611462575f80fd5b823567ffffffffffffffff80821115611479575f80fd5b818501915085601f83011261148c575f80fd5b8135602061149c611319836112d7565b82815260059290921b840181019181810190898411156114ba575f80fd5b948201945b838610156114df576114d08661111f565b825294820194908201906114bf565b965050860135925050808211156114f4575f80fd5b50611501858286016112fa565b9150509250929050565b5f815180845260208085019450602084015f5b8381101561153a5781518752958201959082019060010161151e565b509495945050505050565b602081525f611192602083018461150b565b5f805f60608486031215611569575f80fd5b6115728461111f565b9250602084013567ffffffffffffffff8082111561158e575f80fd5b61159a878388016112fa565b935060408601359150808211156115af575f80fd5b506115bc868287016112fa565b9150509250925092565b5f80604083850312156115d7575f80fd5b6115e08361111f565b9150602083013580151581146115f4575f80fd5b809150509250929050565b5f805f805f60a08688031215611613575f80fd5b61161c8661111f565b9450602086013567ffffffffffffffff80821115611638575f80fd5b61164489838a016112fa565b955060408801359150808211156113cb575f80fd5b5f805f805f60a0868803121561166d575f80fd5b6116768661111f565b9450602086013593506040860135925060608601359150608086013567ffffffffffffffff8111156116a6575f80fd5b61141a88828901611366565b5f80604083850312156116c3575f80fd5b6116cc8361111f565b91506114486020840161111f565b5f805f805f60a086880312156116ee575f80fd5b6116f78661111f565b94506117056020870161111f565b93506040860135925060608601359150608086013567ffffffffffffffff8111156116a6575f80fd5b5f805f60608486031215611740575f80fd5b6117498461111f565b95602085013595506040909401359392505050565b600181811c9082168061177257607f821691505b60208210810361179057634e487b7160e01b5f52602260045260245ffd5b50919050565b634e487b7160e01b5f52603260045260245ffd5b601f82111561050f57805f5260205f20601f840160051c810160208510156117cf5750805b601f840160051c820191505b81811015610c1d575f81556001016117db565b815167ffffffffffffffff81111561180857611808611199565b61181c81611816845461175e565b846117aa565b602080601f83116001811461184f575f84156118385750858301515b5f19600386901b1c1916600185901b1785556107cd565b5f85815260208120601f198616915b8281101561187d5788860151825594840194600190910190840161185e565b508582101561189a57878501515f19600388901b60f8161c191681555b5050505050600190811b01905550565b5f826118c457634e487b7160e01b5f52601260045260245ffd5b500490565b808201808211156103c057634e487b7160e01b5f52601160045260245ffd5b604081525f6118fa604083018561150b565b828103602084015261190c818561150b565b95945050505050565b6001600160a01b03868116825285166020820152604081018490526060810183905260a0608082018190525f9061194e90830184611297565b979650505050505050565b5f60208284031215611969575f80fd5b815161119281611162565b6001600160a01b0386811682528516602082015260a0604082018190525f9061199f9083018661150b565b82810360608401526119b1818661150b565b905082810360808401526119c58185611297565b9897505050505050505056fe9f2df0fed2c77648de5860a4cc508cd0818c85b8b8a1ab4ceeef8d981c8956a6a264697066735822122065c25b2ca58a85b22b17ae386bf9434ccfd367560f3f7872f53342abf33f1d2364736f6c63430008190033",
    "linkReferences": {}
  },
  "methodIdentifiers": {
    "DEFAULT_ADMIN_ROLE()": "a217fddf",
    "MINTER_ROLE()": "d5391393",
    "URI_SETTER_ROLE()": "7f345710",
    "addGameIdAndMinter(uint256,address)": "5cba909f",
    "balanceOf(address,uint256)": "00fdd58e",
    "balanceOfBatch(address[],uint256[])": "4e1273f4",
    "burn(address,uint256,uint256)": "f5298aca",
    "burnBatch(address,uint256[],uint256[])": "6b20c454",
    "getRoleAdmin(bytes32)": "248a9ca3",
    "grantRole(bytes32,address)": "2f2ff15d",
    "hasRole(bytes32,address)": "91d14854",
    "isApprovedForAll(address,address)": "e985e9c5",
    "mint(address,uint256,uint256,uint256,bytes)": "b49c99b8",
    "mintBatch(address,uint256[],uint256[],uint256[],bytes)": "b05b1e1c",
    "removeGameIdAndMinter(uint256)": "d4a714b0",
    "renounceRole(bytes32,address)": "36568abe",
    "revokeRole(bytes32,address)": "d547741f",
    "s_gameToMinter(uint256)": "ad283bd1",
    "safeBatchTransferFrom(address,address,uint256[],uint256[],bytes)": "2eb2c2d6",
    "safeTransferFrom(address,address,uint256,uint256,bytes)": "f242432a",
    "setApprovalForAll(address,bool)": "a22cb465",
    "setURI(string)": "02fe5305",
    "supportsInterface(bytes4)": "01ffc9a7",
    "uri(uint256)": "0e89341c"
  },
  "id": 44
}